:100000000C9446000C9463000C9463000C94630001
:100010000C9463000C9463000C9463000C946300D4
:100020000C9463000C9463000C9463000C946300C4
:100030000C94CC010C9463000C9463000C9463004A
:100040000C9463000C9463000C9490010C94630076
:100050000C9463000C9463000C9463000C94630094
:100060000C9463000C9463000C9463000C94630084
:100070000C9463000C9463000C949A010C9463003C
:100080000C9463000C9463000C94630011241FBE55
:10009000CFEFD0E1DEBFCDBF11E0A0E0B1E0E6E9F7
:1000A000FFE000E00BBF02C007900D92A836B10739
:1000B000D9F716E0A8E6B1E001C01D92A538B10756
:1000C000E1F70C9488030C9400009FEF9ABB1BBAD5
:1000D00097BB18BA14BA15BA83EF81BB82BB8EEFF7
:1000E00082B913B8109261009093620083E180930B
:1000F000640083E0809365000895089590E0981768
:1001000038F40F920F900F920F909F5F9817C8F3DB
:1001100008950F931F93CF93DF938C01C0E0D0E03D
:10012000C817D90780F48AEF0E947E008AEF0E94E8
:100130007E008AEF0E947E0086E90E947E00219662
:10014000C017D10780F3DF91CF911F910F910895D0
:100150005D9BFECF8CB90895982F80919B0085FF01
:10016000FCCF90939C000895809165008D7F8093D3
:100170006500809165008E7F809365008FE18BBB69
:1001800081E00E947E00809165008160809365001F
:10019000809165008260809365001BBA8091630046
:1001A00083FDFCCF0895CF93C82F809165008D7F8C
:1001B00080936500809165008E7F8093650080E16B
:1001C0008BBB81E00E947E008091650081608093FE
:1001D0006500809165008260809365008091630076
:1001E00083FDFCCF809165008D7F809365008091B9
:1001F00065008E7F80936500CBBB81E00E947E000E
:1002000080916500816080936500809165008260C7
:10021000809365008091630083FDFCCFCF910895AA
:10022000982F809165008D7F809365008091650097
:100230008E7F809365009BBB81E00E947E00809151
:100240006500816080936500809165008260809385
:1002500065008091630083FDFCCF0895982F809105
:1002600065008D7F80936500809165008E7F80930F
:100270006500903218F480E28BBB01C09BBB81E02B
:100280000E947E008091650081608093650080916E
:1002900065008260809365008091630083FDFCCFE0
:1002A0000895CF93DF93EB010E94D30088818823C8
:1002B00031F089910E942E0188818823D1F7DF9146
:1002C000CF9108958091650080618093650082E3FD
:1002D00090E00E948900809165008F7E8093650088
:1002E00008958091650080618093650084E690E0C8
:1002F0000E948900809165008F7E8093650008953B
:10030000E199FECF9FBB8EBBE09A8DB399270895EC
:10031000E199FECF9FBB8EBB6DBBE29AE19A089537
:100320001F920F920FB60F9211240F900FBE0F90D5
:100330001F9018951F920F920FB60F9211242F93B2
:100340003F938F939F93EF93FF9320916806309193
:100350006906F901EC55FE4F80919C008083C9012C
:1003600001969093690680936806895E934020F019
:1003700010926906109268061092190681E0809327
:100380000306FF91EF919F918F913F912F910F90D5
:100390000FBE0F901F9018951F920F920FB60F92DD
:1003A00011248F939F9381E080937E0683B198E020
:1003B000892783B9909184069F5F909384068091EA
:1003C000A101813029F480916D018F5F80936D01CF
:1003D00080911906843118F084E1809319069A3FC0
:1003E00018F08AEF8093840680916D01883C18F0A4
:1003F00088EC80936D019F918F910F900FBE0F90AD
:100400001F9018950F931F93CF93DF93809103064E
:10041000813009F05CC020916806309169062E3564
:10042000310508F454C080918A0190918B0190931A
:100430008301809382018217930708F048C0AC01C2
:10044000E90160911B0670911C06909188019A0148
:100450008A01FA01EC55FE4F80818A3329F58181AA
:10046000843511F582818334F9F483818335E1F495
:1004700084A98D30C9F485A98A30B1F4CE35D1056F
:1004800098F0A5EAB5E09D01235A3F4F80818D93F6
:1004900011922A173B07D0F76EE570E091E09801C2
:1004A000260F371F48EE53E04F5F5F4F4C175D0735
:1004B00078F230938B0120938A0190938801709396
:1004C0001C0660931B065093830140938201DF91C9
:1004D000CF911F910F9108950F931F93CF93DF93A7
:1004E00090918801913009F00EC11092880180919D
:1004F000A5058A3309F0F2C08091A605843509F07C
:10050000EDC08091A705833409F0E8C08091A8056B
:10051000833509F0E3C01A9A1092190610926D0102
:100520009093A10110928406109287011092810687
:100530001092A3051092A20540E0E5EAF5E09F01C4
:10054000265A3F4F8191480F2E173F07D8F7409307
:1005500081068BE590E09093A3058093A20580919E
:100560000006481709F0B9C08091AA05809384015C
:100570001092A3051092A205A5E0B6E04AE656E067
:100580002DE831E006E416E0EBEAF5E0BD016D5E32
:100590007F4F8081E80189938E018489E9018993E5
:1005A0009E0180A5EA018993AE0184AD8D933196B9
:1005B0006A177B0770F784E190E09093A30580931E
:1005C000A2058091840180FF02C0C09A01C0C0983A
:1005D00081FF02C0C19A01C0C19882FF02C0C29AC5
:1005E00001C0C29883FF02C0C39A01C0C39884FFB0
:1005F00002C0C49A01C0C49885FF02C0C59A01C058
:10060000C59880E00E94D3001092A3051092A20525
:10061000E091A205F091A305EA5BF94F80810E9469
:100620002E018091A2059091A30501969093A305B8
:100630008093A205449760F384E10E94D300109256
:10064000A3051092A205E091A205F091A305E3573E
:10065000FE4F80810E942E018091A2059091A305FA
:1006600001969093A3058093A205449760F388E2D6
:100670000E94D3001092A3051092A205E091A2055A
:10068000F091A305E659F94F80810E942E018091D7
:10069000A2059091A30501969093A3058093A205CE
:1006A000449760F38CE30E94D3001092A30510924C
:1006B000A205E091A205F091A305EB5FF94F8081BF
:1006C0000E942E018091A2059091A305019690931E
:1006D000A3058093A205449760F31A981092A3058E
:1006E0001092A205E5EAF5E0CF01835A9F4F1192DF
:1006F0008E179F07E0F78EE590E09093A305809317
:10070000A20510921906DF91CF911F910F910895C4
:10071000CFEFD0E1DEBFCDBF0E94650084EF91E056
:100720000E948900199A84E690E00E948900199835
:1007300012BA8FEF88BB0E9462010E94B4008AE067
:1007400090E00E94890080E00E94D3008FE70E9421
:100750002E018FE70E942E018FE70E942E018FE766
:100760000E942E018FE70E942E018FE70E942E012A
:100770008FE70E942E018FE70E942E018FE70E94D3
:100780002E018FE70E942E018FE70E942E018FE736
:100790000E942E018FE70E942E018FE70E942E01FA
:1007A0008FE70E942E018FE70E942E018FE70E94A3
:1007B0002E018FE70E942E018FE70E942E018FE706
:1007C0000E942E0184E10E94D3008FE70E942E0137
:1007D0008FE70E942E0162E071E086E10E945101E4
:1007E0008FE70E942E018FE70E942E0188E20E946F
:1007F000D3008FE70E942E018FE70E942E018FE722
:100800000E942E0180E20E942E0180E20E942E01B1
:100810008FE70E942E018FE70E942E018FE70E9432
:100820002E018FE70E942E018FE70E942E018FE795
:100830000E942E018FE70E942E018FE70E942E0159
:100840008FE70E942E018FE70E942E0180E20E9416
:100850002E0180E20E942E018FE70E942E018FE779
:100860000E942E018FE70E942E018CE30E94D3008C
:100870008FE70E942E018FE70E942E018FE70E94D2
:100880002E018FE70E942E018FE70E942E018FE735
:100890000E942E018FE70E942E018FE70E942E01F9
:1008A0008FE70E942E018FE70E942E018FE70E94A2
:1008B0002E018FE70E942E018FE70E942E018FE705
:1008C0000E942E018FE70E942E018FE70E942E01C9
:1008D0008FE70E942E018FE70E942E018FE70E9472
:1008E0002E018FE70E942E0183EF82BB84EF91E0FF
:1008F0000E94890012BA1FBC0CE00EBD90E19BBDA6
:100900008FED8ABD1DBC1CBC97BF16BE10929B000C
:1009100088E980939A0016E010939D001092980049
:1009200085E08093990010928D050E9462010E94DB
:1009300062011092690110928C0510926D01109263
:10094000A10118BA03B990E3909385018AE38093DB
:100950005A068BE480935B0685E480935C0689E508
:1009600080935D0610935E0690935F06109260067A
:10097000109261061092620610926306109264064D
:1009800010926C011092A3051092A20520916006AE
:10099000EAE5F6E0AF01465F5F4F8191280F4E1701
:1009A0005F07D8F720936C018BE090E09093A3054C
:1009B0008093A205209365068DE0809366068AE009
:1009C0008093670663E171E080E00E94510168E274
:1009D00071E084E10E9451016DE371E088E20E94C0
:1009E000510162E571E08CE30E945101789485E049
:1009F00090E00E94890080B18F71809345068E310E
:100A000011F010928C018B3019F010928C0505C0FA
:100A1000919A949A9598969A9798809145068F31D5
:100A200041F41092680191989498959896989798A7
:100A300015C210916801112309F010C20E94B40080
:100A400081E090E00E94890063E171E0812F0E94C3
:100A5000510168E271E084E10E9451016DE371E0AF
:100A600088E20E94510162E571E08CE30E9451012D
:100A7000809145068E3109F062C09198949A959ABA
:100A8000969A979A10938C011092800610927F0686
:100A900010938D0581E08093680191E39093850127
:100AA0008AE380935A068BE480935B0685E4809307
:100AB0005C0689E580935D0686E080935E069093F0
:100AC0005F06109360061093610610936206109300
:100AD00063061093640610936C011092A3051092A4
:100AE000A205912FEAE5F6E09F01265F3F4F819135
:100AF000980F2E173F07D8F790936C0190936506D7
:100B00008DE0809366068AE0809367061092A305C5
:100B10001092A205E091A205F091A305E65AF94FC3
:100B200080810E94AC008091A2059091A30501965E
:100B30009093A3058093A2050E9760F38BC18D312E
:100B400009F060C0919A9498959A969A979A109203
:100B5000800610927F0610938D0581E080936801D6
:100B600092E3909385018AE380935A068BE4809305
:100B70005B0685E480935C0689E580935D0686E0EC
:100B800080935E0690935F06109360061093610653
:100B900010936206109363061093640610936C0121
:100BA0001092A3051092A205912FEAE5F6E09F01AD
:100BB000265F3F4F8191980F2E173F07D8F79093EC
:100BC0006C01909365068DE0809366068AE08093C1
:100BD00067061092A3051092A205E091A205F0917C
:100BE000A305E65AF94F80810E94AC008091A205CE
:100BF0009091A30501969093A3058093A2050E976B
:100C000060F328C18B3109F060C0919A949A95984D
:100C1000969A979A1092800610927F0610938D05EF
:100C200081E08093680193E3909385018AE3809348
:100C30005A068BE480935B0685E480935C0689E525
:100C400080935D0686E080935E0690935F06109326
:100C5000600610936106109362061093630610936A
:100C6000640610936C011092A3051092A205912FB7
:100C7000EAE5F6E09F01265F3F4F8191980F2E171E
:100C80003F07D8F790936C01909365068DE08093B1
:100C900066068AE0809367061092A3051092A2056B
:100CA000E091A205F091A305E65AF94F80810E94D8
:100CB000AC008091A2059091A30501969093A305A5
:100CC0008093A2050E9760F3C5C0873109F060C01C
:100CD000919A949A959A9698979A10928006109263
:100CE0007F0610938D0581E08093680194E39093D3
:100CF00085018AE380935A068BE480935B0685E442
:100D000080935C0689E580935D0686E080935E06AD
:100D100090935F061093600610936106109362062D
:100D2000109363061093640610936C011092A30550
:100D30001092A205912FEAE5F6E09F01265F3F4F52
:100D40008191980F2E173F07D8F790936C019093DD
:100D500065068DE0809366068AE0809367061092B0
:100D6000A3051092A205E091A205F091A305E65A11
:100D7000F94F80810E94AC008091A2059091A3055B
:100D800001969093A3058093A2050E9760F362C02D
:100D90008F3009F063C0919A949A959A969A979891
:100DA0001092800610927F0610938D0581E080934B
:100DB000680195E3909385018AE380935A068BE45A
:100DC00080935B0685E480935C0689E580935D06ED
:100DD00086E080935E0690935F0610936006109302
:100DE00061061093620610936306109364061093D5
:100DF0006C011092A3051092A205912FEAE5F6E08E
:100E00009F01265F3F4F8191980F2E173F07D8F71C
:100E100090936C01909365068DE0809366068AE05E
:100E2000809367061092A3051092A205E091A20597
:100E3000F091A305E65AF94F80810E94AC008091A1
:100E4000A2059091A30501969093A3058093A20516
:100E50000E9760F3109284061092870180917E06AF
:100E6000813009F081C010927E068091000190913E
:100E700001010196909301018093000120918C0162
:100E80002F5F20938C0180918C058F5F80938C0560
:100E900080917F06909180060196909380068093C2
:100EA0007F06809119068F5F809319068091A405B3
:100EB0008F5F8093A4052E3131F40E94710110924E
:100EC000A10110926D018091A4058233B1F41092BA
:100ED000A40563E171E080E00E94510168E271E0E5
:100EE00084E10E9451016DE371E088E20E945101AA
:100EF00062E571E08CE30E94510180918C058E3196
:100F000031F40E9471011092A10110926D01809143
:100F10008C01853618F084E680938C0180918C05D5
:100F2000853618F084E680938C0580917F06909139
:100F30008006449778F020911A062F5F20931A06B6
:100F400084E190E09093800680937F06223010F039
:100F500010921A068091000190910101892B21F0D5
:100F600010920101109200010E9402020E946C0284
:100F700080911906823009F03ACD109269061092DC
:100F8000680610928B0110928A01109203068AE083
:060F9000809319062CCD30
:100F96000A00202053595354454D2053544152546E
:100FA6002020004D6F64656C3A4D44452D3830481D
:100FB6002020202020202000456E73656D626C6520
:100FC600204D756C7469706C657865720020202000
:100FD6002020205665723A323031382E30352E3187
:100FE60038002D2D2D2D2D2D2D2D2D2D2D2D2D2D4D
:080FF6002D2D2D2D2D2D0000E5
:00000001FF
